{
  "_format": "hh-sol-artifact-1",
  "contractName": "Escrow",
  "sourceName": "contracts/Escrow.sol",
  "abi": [
    {
      "inputs": [
        {
          "internalType": "address",
          "name": "_arbiter",
          "type": "address"
        },
        {
          "internalType": "address",
          "name": "_beneficiary",
          "type": "address"
        }
      ],
      "stateMutability": "payable",
      "type": "constructor"
    },
    {
      "anonymous": false,
      "inputs": [
        {
          "indexed": false,
          "internalType": "uint256",
          "name": "",
          "type": "uint256"
        }
      ],
      "name": "Approved",
      "type": "event"
    },
    {
      "inputs": [],
      "name": "approve",
      "outputs": [],
      "stateMutability": "nonpayable",
      "type": "function"
    },
    {
      "inputs": [],
      "name": "arbiter",
      "outputs": [
        {
          "internalType": "address",
          "name": "",
          "type": "address"
        }
      ],
      "stateMutability": "view",
      "type": "function"
    },
    {
      "inputs": [],
      "name": "beneficiary",
      "outputs": [
        {
          "internalType": "address",
          "name": "",
          "type": "address"
        }
      ],
      "stateMutability": "view",
      "type": "function"
    },
    {
      "inputs": [],
      "name": "depositor",
      "outputs": [
        {
          "internalType": "address",
          "name": "",
          "type": "address"
        }
      ],
      "stateMutability": "view",
      "type": "function"
    },
    {
      "inputs": [],
      "name": "isApproved",
      "outputs": [
        {
          "internalType": "bool",
          "name": "",
          "type": "bool"
        }
      ],
      "stateMutability": "view",
      "type": "function"
    }
  ],
  "bytecode": "0x60806040526040516102da3803806102da8339810160408190526100229161007f565b600080546001600160a01b039384166001600160a01b03199182161790915560018054929093169181169190911790915560028054909116331790556100b2565b80516001600160a01b038116811461007a57600080fd5b919050565b6000806040838503121561009257600080fd5b61009b83610063565b91506100a960208401610063565b90509250929050565b610219806100c16000396000f3fe608060405234801561001057600080fd5b50600436106100575760003560e01c806312424e3f1461005c57806328f371aa1461006657806338af3eed1461008f578063c7c4ff46146100ba578063fe25e00a146100cd575b600080fd5b6100646100e0565b005b60025461007a90600160a01b900460ff1681565b60405190151581526020015b60405180910390f35b6001546100a2906001600160a01b031681565b6040516001600160a01b039091168152602001610086565b6002546100a2906001600160a01b031681565b6000546100a2906001600160a01b031681565b6000546001600160a01b031633146100f757600080fd5b60015460405147916000916001600160a01b039091169083908381818185875af1925050503d8060008114610148576040519150601f19603f3d011682016040523d82523d6000602084013e61014d565b606091505b50509050806101995760405162461bcd60e51b81526020600482015260146024820152732330b4b632b2103a379039b2b7321022ba3432b960611b604482015260640160405180910390fd5b6040518281527f3ad93af63cb7967b23e4fb500b7d7d28b07516325dcf341f88bebf959d82c1cb9060200160405180910390a150506002805460ff60a01b1916600160a01b17905556fea264697066735822122030cfa7a9ecd4dbc5dcf1401599cfeb89ae09164bad98181557011066202b125864736f6c63430008110033",
  "linkReferences": {},
  "deployedLinkReferences": {}
}